:020000000C945E
:1000020066000C9400000C9400000C9400000C9408
:1000120000000C9400000C9400000C9400000C945E
:1000220000000C9400000C9400000C9465020C94E7
:1000320000000C9400000C9400000C9400000C943E
:1000420000000C9400000C9400000C9400000C942E
:1000520000001027E80364000A00010000100001FC
:100062001000010000000000000201000000C0F9C1
:10007200A4B0999282F880901E0F0A050C05100117
:1000820001004E6869657420646F206869656E209E
:10009200746169206C612025660078696E2063684E
:1000A200616F000001002D4E414E00494E46000096
:1000B2000100020066000800060068000A006F01E5
:1000C200700001008901A6000000F894EE27ECBB45
:1000D200F1E0FBBFEBBFE5BFF8E1F1BDE1BD8DE0B3
:1000E200A2E0BB27ED938A95E9F780E094E0A0E6D1
:1000F200ED930197E9F7E2EBF0E085919591009796
:1001020061F0A591B59105901590BF01F0010590A0
:100112000D920197E1F7FB01F0CFEFE5EDBFE4E0CF
:10012200EEBFC0E6D1E00C9482021A93C098B89A4E
:1001320080EE91E00197F1F7B89880E58A95F1F7A2
:10014200E6B3E1701E2F84EA91E00197F1F718C03F
:10015200AA9387D2E881E03009F0B89880E58A95C1
:10016200F1F7B8980C9430031A9310E07AD2B89849
:1001720083E18A95F1F7B09911E08CE38A95F1F762
:10018200E12F19910895AA931A9318E0E12F1150C3
:10019200E03041F0E981E170AE2FDADFE981E695E6
:1001A200E983F4CF1881229608951A930A9318E0EE
:1001B20000E0E12F1150E03039F00695D5DFE795E8
:1001C200E0E0E7950E2BF5CFE02F09911991089504
:1001D20026974DD2A5D2A9DFACECD5DFA4E4D3DFBC
:1001E200C3DFE030E9F3A1DFACECCDDFAEEBCBDF78
:1001F200DCDFE887DADFE98798DFE885E295EF70F0
:100202001E2FE985E770E295E07F1E2BE885F0E07E
:10021200EF70F0709F01A1E7B2E0B5D29F01E12F2C
:10022200F0E0E7FDFFEFFF93EF93F90166277727F1
:100232006DD3A7E1B7EB81ED98E3EAD3AF91BF911C
:1002420093D2E4D296D3EC83FD836E837F836FD205
:100252002A960895AA931A930A93EA81EF701E2FA1
:10026200EA81E295EF70AAE0EA02002DE12FE00FA9
:100272000C941E036297EAE0EA83EFE0E983E0ED83
:10028200EA93A0E071D0EF77AE2FE4DFE883E0EDF0
:10029200EA93A1E069D0AE2FDDDFE983EED1E0740D
:1002A200A0E06CD2EF83E9D1E072A0E067D2E887E8
:1002B200EF81E03019F0E1D1EF7102C0DED1EF73CE
:1002C200AE2FC8DFEA83E0EDEA93A3E04DD0AE2F74
:1002D200C1DFEB83E0EDEA93A4E046D0AE2FBADFB4
:1002E200EC83E0EDEA93A5E03FD0AE2FB3DFED83E0
:1002F200E0EDEA93A6E038D0AE2FACDFEE83FE014C
:10030200DE01199689E092D2FE01399689E01FB684
:10031200F89462960895E0E0E1B9ECE0E0B908955E
:10032200AA93E4EAE6BFE6B7E078E9F3AAD1E6B732
:10033200E078E9F3E1B1E87FA8E11BD290C1AA938A
:10034200A881EEDF8CC1AA939CD1E6B7E078E9F3ED
:10035200E1B1E87FA8E212D282C1E4E8E6BFE6B7E3
:10036200E078E9F3E3B10895AA931A9310E0AA8121
:10037200E6DFA981E8DFAA81AF5FE1DFEEDF1E2FB2
:10038200E4E9E6BFE12F18815AC1AA93A0E47ED125
:10039200AC817CD1AB817AD1AA8178D1A98176D185
:1003A200A88174D1A3E272D188D016C0AA93AFE615
:1003B20071D1A6E249D1AC81AF5F46D1AB81AF5FCB
:1003C20043D1AA81AF5F40D1A981AF5F3DD1A8815E
:1003D200AF5F3AD1A3E25AD1259608952997D60163
:1003E200F1D0A0EDB7E062D3E4E0F0E0EC15FD055A
:1003F20019F4A0917E012DD1E7E0F0E0EC15FD05A6
:1004020041F5A7E34CD1E0917F01E03089F460919E
:1004120081017727A091820147D1E60FF71FA9E753
:10042200B1E09DD173D2EBD1E0E0EA93EA9341D1FE
:10043200A0917F01A13069F4E0918001EA83E0910B
:100442008101E983E0918201E8833AD1E091800160
:1004520030D1CC24DD2429960895A0917D0116D1B6
:10046200A0917E0113D1A0917F0110D1A0918001B2
:100472000DD108950A2C0B2869F0E0E4E81519F46F
:10048200AA24BB2422D1E4E2E81519F4ABE007D197
:10049200E4DF07C01AD1E3E2E81511F01ED10CF433
:1004A20021D10895A4E2D0D00895E1E0F0E0E093F4
:1004B2008701F093880158980895E0E0E09387015E
:1004C200E0938801589A08950A921A92FA926A93CE
:1004D2007A938A939A93AA93BA93EA93FA93EFB789
:1004E200EA938CB0C7DFE991EFBFF991E991B99135
:1004F200A9919991899179916991F99019900990AD
:1005020018952B9789E0A0E0B0E0EAE7F0E014D17B
:1005120000E010E0E0E0EBBBEFEFEABBE0E0E8BBBD
:10052200E7BBE5BBE4BBE2BBE1BBE3BFE2BFECBFC1
:10053200EFBDEEBDEDBDECBDE7BDE6BDEBBDEABD79
:10054200E9BDE8BDE2BDE5BDE4BDE3BDE5BFE4BF95
:10055200E9BFEBB9E6E8E0BDECE9EAB9E0E0E0BD0D
:10056200E9E1E9B9E0E8E8B9E0E0E0BFE6B9EDB910
:10057200E6BFD1DE789424977AD02ADEE09379011F
:10058200F0937A0160937B0170937C0186D1AE2F48
:1005920008D0A8EEB3E08AD2AAE07CD02496EBCFB2
:1005A200FFCFAA931A930A93AA817ED01E2FAA8103
:1005B200BB27EAE0F0E007D10E2FA6EC2AD0ACE987
:1005C20095D03BC0BA93AA93A9D040E050E09CD00A
:1005D200F5D01E2F99D0F7D0DF01E4E6F0E0EED09F
:1005E2000E2FAE81BF81E4E6F0E0EDD0DF01EAE05C
:1005F200F0E0E4D03E2FAE81BF81EAE0F0E0E3D04C
:100602002E2F87D006D0E32F84D070D08ED028969C
:100612000895AA931A930A9310E0183070F40A818D
:100622000078003811F4D99A01C0D998EA81EE0F06
:10063200EA83D898D89A1F5FF0CF19810881239650
:100642000895DA98DA9A0895AA935D9BFECF50989E
:1006520004C0AA935D9BFECF509AE881ECB9219623
:100662000895C098B89A81E08A95F1F70895E0E07C
:10067200E883E983EA83EB830895E0EDEA93A2E05D
:1006820073CEE881E3B9E4E8E6BF0895DDDFA4E6CE
:10069200B0E00CC2B0E096DFA0EDB7E007C2B0E078
:1006A20091DFA0EABFE002C2B0E0EAE0F0E086D06B
:1006B2000895EA93E0918101EA93A091820176CEB6
:1006C200E0E0EA93E1E0EA930895F601E358FE4F91
:1006D2008082F60131966F010895E9E0F0E0EC15B1
:1006E200FD050895E1E0F0E05F0178CE92DFE02FB2
:1006F200F0E0E159FE4FA0818CDFE12FF0E0E159FB
:10070200FE4FA08186DF9DCFAE81BF81E8EEF3E090
:100712000895F0E0E159FE4FA08108955A934A935B
:100722003A932A931A930A9308955D814C813B81EF
:100732002A81198108810895AC0FBD1F05900D9281
:100742008A95E1F70895F195E195F0400895F095C5
:1007520060957095E195FF4F6F4F7F4F08956F2F12
:10076200660F660B762F08958B2F880F880B982FB4
:100772000895EA17E1E009F0EE270895EA17E1E0AB
:1007820009F4EE270895FA9FF02DEB9FF00DEA9FF2
:10079200E02DF10D08950024112490E1AA0FBB1F52
:1007A200001C111C0E1A1F0A18F40E0E1F1E01C087
:1007B200A1609A9599F7FD01D001089512D0EBDF5F
:1007C2000EF4C1DF0895E894B7FF04C0B195A19576
:1007D200B0406894F7FDB7DFDEDFFD010EF4B3DF52
:1007E2000895E894F7FF02C0AEDF6894B7FF06C031
:1007F200B195A195B04000F8039400FA0895ED93E5
:10080200FD936D937C930895689401C0E89401D0A0
:100812007ED0182E862F612D192E972F712D1B2E0B
:10082200BF2FF12D1A2EAE2FE12D08959927EF93A8
:10083200FF9361916D930197E1F7FF91EF91089515
:10084200552342F4503811F4E0FF04C03196691F79
:10085200791F6BF050E8572711F45F93C8C05F3FD0
:1008620031F0660F000C57956795752F08955F93C9
:1008720000200AF0C7C0C0C050E8192E1522880F08
:10088200991F9527550F879550E8072E0522660F69
:10089200771F7527550F67950895689401C0E894EE
:1008A2005F93F2DF703818F07F3F08F4A0C056E182
:1008B200571BAAF4519558300EF4593030F0EFEF2F
:1008C200FFEF6FEF7FE777F91AC077275523B9F06B
:1008D200EE0FFF1F661F771F5A95D1F710C07727BB
:1008E200583028F0EF2FF62F672F5850F9CF5523A5
:1008F20031F076956795F795E7955A95D1F70020EF
:100902000AF425DF5F910895689401C0E894309756
:1009120060407040B1F0002426F0772312F4009476
:1009220016DF172E7EE1112032F07A95EE0FFF1FAF
:10093200661F111CF9CFEF2FF62F612D5F938ADF0F
:100942005F9108954F93AF01FD01DA01AB01BC0144
:10095200CA01402D012C142E4F910895EA0FFB1F5E
:10096200681F0895E095F0956095EF5FFF4F6F4F18
:1009720008955F9381DF903839F1703821F1572F54
:10098200591B2BF112F4DEDFFACF583118F0AA27E7
:10099200BB278827583028F0AB2FB82F882758500C
:1009A200F9CF552329F08695B795A7955A95D9F78A
:1009B200502D512572F0D2DF38F46795F795E795FF
:1009C200739513F41FC0BEDF45DF5F910895D8F71A
:1009D200FBCFEA1BFB0B680B51F010F40094C2DF53
:1009E200662392F3EE0FFF1F661F7A95CBF7EE2771
:1009F200FF27BF015F910895EFEFFFEF6FE77FEFF2
:100A02005F910895EFEFFFEF6FE77FE75F91089542
:100A12005F9332DF703859F3903849F30124089418
:100A2200791F23F424F300203AF3ECCF0F921F93A3
:100A32002F933F934F93112722279927689FA00155
:100A42008F9F302D410D591F6B9F300D411D591F36
:100A52008E9F27D0BF9F25D06A9F23D0BE9F1DD0D7
:100A6200AF9F1BD0AE9F110D291F391F491F591F60
:100A7200E32FF42F652F522F4F913F912F911F910A
:100A82000F9066232AF0550FEE1FFF1F661F02C04C
:100A920073954BF2D5DE5F910895100D211D391F1C
:100AA20002C0200D311D491F591F0895109639F0BB
:100AB200A89588EE93E00197F1F71197C9F7089589
:00000001FF
