:0E0000000C9481000C9400000C9400000C94F1
:10000E0000000C9400000C9400000C9400000C9462
:10001E0000000C9400000C9400000C9400000C9452
:10002E00E7010C9400000C9400000C9400000C945A
:10003E0000000C9400000C9400000C9400000C9432
:10004E0000000C9400001027E80364000A00010071
:10005E000010000110000100000000000002C0F9B5
:10006E00A4B0999282F880901E0F0A050C0510011B
:10007E000100204E6869657420646F206869656EA2
:10008E0020746169206C61202564206F430A0D0085
:10009E002047696F206869656E20746169206C6104
:1000AE002025643A25643A25640A0D004E68696578
:1000BE007420646F206869656E20746169206C61BC
:1000CE002025660078696E206368616F000001006C
:1000DE002D4E414E00494E460000010002006600C2
:1000EE000400060068000A006F016C0001007D012B
:1000FE00DC000000F894EE27ECBBF1E0FBBFEBBF99
:10010E00E5BFF8E1F1BDE1BD8DE0A2E0BB27ED93C7
:10011E008A95E9F780E094E0A0E6ED930197E9F780
:10012E00E8EEF0E085919591009761F0A591B5917B
:10013E0005901590BF01F00105900D920197E1F722
:10014E00FB01F0CFEFE5EDBFE4E0EEBFC0E6D1E09E
:10015E000C941D021A93C098B89A80EE91E0019704
:10016E00F1F7B89880E58A95F1F7E6B3E1701E2FA6
:10017E0084EA91E00197F1F70C941A02AA9397D3AF
:10018E00E881E03009F0B89880E58A95F1F7B898E3
:10019E000C94F8021A9310E08AD3B89883E18A95EA
:1001AE00F1F7B09911E08CE38A95F1F70C941A02ED
:1001BE00AA931A9318E0E12F1150E03041F0E98133
:1001CE00E170AE2FDBDFE981E695E983F4CF18818C
:1001DE00229608951A930A9318E000E0E12F115029
:1001EE00E03039F00695D6DFE795E0E0E7950E2B87
:1001FE00F5CFE02F09911991089526975ED3BFD3BD
:10020E00A9DFACECD5DFA4E4D3DFC4DFE030E9F343
:10021E00A1DFACECCDDFAEEBCBDFDCDFE887DADFE6
:10022E00E98798DFE885E295EF701E2FE985E77084
:10023E00E295E07F1E2BE885F0E0EF70F0709F01F5
:10024E00A1E7B2E0D3D39F01E12FF0E0E7FDFFEF8E
:10025E00FF93EF93F9016627772798D4A7E1B7EBC1
:10026E0081ED98E315D5AF91BF91B1D30FD4C1D421
:10027E00EC83FD836E837F8389D32A960895AA9398
:10028E001A930A93EA81EF701E2FEA81E295EF70BE
:10029E00AAE0EA02002DE12FE00F198108810C94EB
:1002AE0005036297EAE0EA83EFE0E983E0EDEA9383
:1002BE00A0E074D0EF77AE2FE2DFE883E0EDEA93B3
:1002CE00A1E06CD0AE2FDBDFE983FDD2E074A0E0BD
:1002DE0088D3EF83F8D2E072A0E083D3E887EF8172
:1002EE00E03019F0F0D2EF7102C0EDD2EF73AE2F05
:1002FE00C6DFEA83E0EDEA93A3E050D0AE2FBFDF76
:10030E00EB83E0EDEA93A4E049D0AE2FB8DFEC83A7
:10031E00E0EDEA93A5E042D0AE2FB1DFED83E0ED44
:10032E00EA93A6E03BD0AE2FAADFEE83FE01DE01FC
:10033E00199689E0BBD3FE01399689E01FB6F89471
:10034E0062960895E0E0E1B9ECE0E0B90895AA9371
:10035E00E4EAE6BFE6B7E078E9F3B9D2E6B7E078CB
:10036E00E9F3E1B1E87FA8E137D30C94F802AA9340
:10037E00A881EDDF0C94F802AA93A9D2E6B7E07833
:10038E00E9F3E1B1E87FA8E22CD30C94F802E4E89B
:10039E00E6BFE6B7E078E9F3E3B10895AA931A93BE
:1003AE0010E0AA81E4DFA981E7DFAA81AF5FDFDF7A
:1003BE00EEDF1E2FE4E9E6BFE12F18810C94050352
:1003CE00EA93FA93EFB7EA931A930A931BB10CB11F
:1003DE00E12FEC7189F4E52DF0E0E959FE4F008331
:1003EE005394E8E0E51509F455247394E8E0E71515
:1003FE0019F47724689420F809911991E991EFBFC7
:10040E00F991E99118951A93772011F4E0E00CC058
:10041E00E42DF0E0E959FE4F10814394E8E0E41535
:10042E0009F444247A94E12F199108952B9789E0C9
:10043E00A0E0B0E0E6E7F0E0AED200E010E0E0E0F1
:10044E00EBBBEFEFEABBE0E0E8BBE7BBE5BBE4BB31
:10045E00E2BBE1BBE3BFE2BFECBFEFBDEEBDEDBD66
:10046E00ECBDE7BDE6BDEBBDEABDE9BDE8BDE2BD55
:10047E00E5BDE4BDE3BDE5BFE4BFE9BFEBB9E6E82A
:10048E00E0BDE8E9EAB9E0E0E0BDE9E1E9B9E0E8BC
:10049E00E8B9E0E0E0BFE6B9EDB9E6BF53DF789426
:1004AE0024970BD2AADEE0937901F0937A01609340
:1004BE007B0170937C0110D2AE2F44D0A8EEB3E036
:1004CE0035D4EFDEDE011496F1D21FBEEC85AB857E
:1004DE00EA02F001ACE0EA02F001AE81EA0FEA9323
:1004EE00AE8140D0A0EDB7E021D48DDF6E2EE4E7D3
:1004FE00E61549F4E0E8F0E0FA93EA93EDD1F6D18F
:10050E0084E09AD12696E8E6E615C9F4EEE9F0E025
:10051E00FA93EA9368857727AD85BB27EE85F0E0E1
:10052E006DD2ACE0B0E06AD2E60FF71FF0E0DED19C
:10053E00EB85DCD1EE85DAD18CE07ED12E96249639
:10054E00AFCFFFCFAA931A930A93AA81D4D1AA81CF
:10055E00D8D1A6EC27D0ACE9DAD1A081DED11981B1
:10056E0008814CC0AA930BD2AD81C5D1AD81C9D142
:10057E00AC81B0E0EAE0F0E059D23E2FAC81BB276F
:10058E00EAE0F0E058D22E2FD0D10CD0E32FCDD10F
:10059E00BED1E081E095E068E095AE2FBED1F6D1F8
:1005AE0026960895AA931A930A9310E0183070F4C1
:1005BE000A810078003811F4D99A01C0D998EA81DD
:1005CE00EE0FEA83D898D89A1F5FF0CF1981088171
:1005DE0015C0DA98DA9A0895AA935D9BFECFE8814A
:1005EE00ECB921960895BA93AA93AA81F5DFA88152
:1005FE00B981ED91FD913196FE93EE932396089578
:10060E00BA93AA932697B9D110E0AC85BD85E0E0E8
:10061E00F0E0ED93FC93EA89FB893196EA8BFB8B34
:10062E003197E4912E2FE03009F400C1E12FE03034
:10063E0031F4253211F411E001C07CD1F6C0E13065
:10064E00A1F4253211F476D1EFC012E040E000E0C3
:10065E002D3211F401E0E9C02B3211F44BE2E5C06A
:10066E00203211F440E2E1C002C0E23039F450E031
:10067E0013E0203311F40068D8C003C0E33009F052
:10068E00D4C0203310F02A3308F007C0AAE05A9FD6
:10069E00502DE22FE0535E0FC8C0E22FE33639F43F
:1006AE0050D1E889F989A481AA9351D1BDC0E3370D
:1006BE0029F447D152D1E2D01E2F07C0E03749F4BA
:1006CE0040D14BD1E7D01E2F086002600F7730E08B
:1006DE002FC0E43611F0E93611F4046002C0E5379C
:1006EE0031F4E4E5F0E0EE83FF8315E00CC0E8356D
:1006FE0011F4086003C0E83709F096C0EEE5F0E0AB
:10070E00EE83FF8314E002FF11C01BD12FD1AB8506
:10071E00AA2332F4EA85FB8549D1EA87FB874DE2AD
:10072E00403011F01F5F01C00B7F02C00AD11ED1F5
:10073E0000FD10C0151770F407FF08C002FF04C0BB
:10074E000B7F242F115001C020E301C020E2F2D014
:10075E005150F0CF312F01FF16C0303099F003FF0A
:10076E0006C0EE81FF812591EE83FF8305C0AE8129
:10077E00BF812D91AE83BF83DDD0503009F0515033
:10078E003150EBCF48C020E3EE81FF8174D1E88772
:10079E00F987EE81FF813296EE83FF83E885F98536
:1007AE00AA85BB85AE17BF0750F02F5FA885B98508
:1007BE00EA85FB85EA1BFB0BEA87FB87EFCF2A3323
:1007CE0028F003FF02C0295F01C0295D04FD19C096
:1007DE00213320F4A885B985119709F409C0531760
:1007EE0010F000FF01C011C020E207FF0AC020E395
:1007FE00006102FF06C00B7F4A93A9D0503009F06A
:10080E00515098D0503009F051503150A885B985CB
:10081E00129708F0B8CF00FF07C0503029F05150A2
:10082E00E0E2EA9394D0F9CF10E0F5CEAC85BD8529
:10083E001ED1AAD064960895FF92F82E26971A9389
:10084E000A93DE011496AED08D01E0E0EC83ED83C9
:10085E00EE83EF83DE011896A5D009D1FA93EA93C1
:10086E001A930A93EAEFF2E0FA93EA93DE011896EE
:10087E00C7DE198108812896FF900895BA93AA932E
:10088E00A991B991EE27FF276D91662311F031964C
:10089E00FBCF0895BA93AA93AA27BB27E991F991A2
:1008AE000590002011F01196FBCFFD010895C09820
:1008BE00B89A81E08A95F1F70895E0E0E883E9833C
:1008CE00EA83EB830895E0EDEA93A2E067CDE88139
:1008DE00E3B9E4E8E6BF0895E0917901F0917A0179
:1008EE0060917B0170917C0118D10895FF276627D6
:1008FE007727C5D00895B0E0EAE0F0E097D01E2F3C
:10090E000895BB27EAE0F0E096D00E2F08954ADE58
:10091E00E02FF0E0E159FE4F089544DEE12FF0E0C4
:10092E00E159FE4FA0813EDE54CEF0E0E159FE4F7C
:10093E00A08108952A93AD85BE85EF85F889099526
:10094E000895E889F9893497E88BF98B0895AD8578
:10095E00BE85EF85F88909950895A889B9891496F9
:10096E0086D0EE83FF83AE81BF810895A889B989B1
:10097E0014967DD0EA87FB8708955A934A933A934B
:10098E002A931A930A9308955D814C813B812A81A3
:10099E00198108810895AC0FBD1F05900D928A959F
:1009AE00E1F708950024AF0DB01D0895F195E1957E
:1009BE00F0400895F09560957095E195FF4F6F4F5B
:1009CE007F4F08956F2F660F660B762F08958B2F2E
:1009DE00880F880B982F0895EA17E1E009F0EE27AB
:1009EE000895EA17E1E009F4EE270895FA9FF02D35
:1009FE00EB9FF00DEA9FE02DF10D08952AD0F6DF62
:100A0E000EF4D4DF08950024112490E1AA0FBB1F29
:100A1E00001C111C0E1A1F0A18F40E0E1F1E01C008
:100A2E00A1609A9599F7FD01D001089512D0EBDFE0
:100A3E000EF4BCDF0895E894B7FF04C0B195A195FC
:100A4E00B0406894F7FDB2DFDEDFFD010EF4AEDFDD
:100A5E000895E894F7FF02C0A9DF6894B7FF06C0B7
:100A6E00B195A195B04000F8039400FA0895ED9168
:100A7E00FC91119708950590F491E02D08957A93C5
:100A8E006A93FA93EA930895689401C0E89401D0AA
:100A9E007ED0182E862F612D192E972F712D1B2E7D
:100AAE00BF2FF12D1A2EAE2FE12D08959927EF931A
:100ABE00FF9361916D930197E1F7FF91EF91089587
:100ACE00552342F4503811F4E0FF04C03196691FEB
:100ADE00791F6BF050E8572711F45F93C8C05F3F42
:100AEE0031F0660F000C57956795752F08955F933B
:100AFE0000200AF0C7C0C0C050E8192E1522880F7A
:100B0E00991F9527550F879550E8072E0522660FDA
:100B1E00771F7527550F67950895689401C0E8945F
:100B2E005F93F2DF703818F07F3F08F4A0C056E1F3
:100B3E00571BAAF4519558300EF4593030F0EFEFA0
:100B4E00FFEF6FEF7FE777F91AC077275523B9F0DC
:100B5E00EE0FFF1F661F771F5A95D1F710C077272C
:100B6E00583028F0EF2FF62F672F5850F9CF552316
:100B7E0031F076956795F795E7955A95D1F7002060
:100B8E000AF418DF5F910895689401C0E8943097D5
:100B9E0060407040B1F0002426F0772312F40094E8
:100BAE0009DF172E7EE1112032F07A95EE0FFF1F2E
:100BBE00661F111CF9CFEF2FF62F612D5F938ADF81
:100BCE005F9108954F93AF01FD01DA01AB01BC01B6
:100BDE00CA01402D012C142E4F910895EA0FFB1FD0
:100BEE00681F0895E095F0956095EF5FFF4F6F4F8A
:100BFE0008955F9381DF903839F1703821F1572FC6
:100C0E00591B2BF112F4DEDFFACF583118F0AA2758
:100C1E00BB278827583028F0AB2FB82F882758507D
:100C2E00F9CF552329F08695B795A7955A95D9F7FB
:100C3E00502D512572F0D2DF38F46795F795E79570
:100C4E00739513F41FC0BEDF45DF5F910895D8F78B
:100C5E00FBCFEA1BFB0B680B51F010F40094C2DFC4
:100C6E00662392F3EE0FFF1F661F7A95CBF7EE27E2
:100C7E00FF27BF015F910895EFEFFFEF6FE77FEF63
:100C8E005F910895EFEFFFEF6FE77FE75F910895B4
:100C9E005F9332DF703859F3903849F3012408948A
:100CAE00791F23F424F300203AF3ECCF0F921F9315
:100CBE002F933F934F93112722279927689FA001C7
:100CCE008F9F302D410D591F6B9F300D411D591FA8
:100CDE008E9F27D0BF9F25D06A9F23D0BE9F1DD049
:100CEE00AF9F1BD0AE9F110D291F391F491F591FD2
:100CFE00E32FF42F652F522F4F913F912F911F917C
:100D0E000F9066232AF0550FEE1FFF1F661F02C0BD
:100D1E0073954BF2D5DE5F910895100D211D391F8D
:100D2E0002C0200D311D491F591F0895109639F02C
:100D3E00A89588EE93E00197F1F71197C9F70895FA
:00000001FF
